:020000040800F2
:10000000A0050020C9000008191A0008EB17000815
:1000100000000000000000000000000000000000E0
:100020000000000000000000000000001D1A000891
:1000300000000000000000001B1A00081F1A000842
:10004000DB00000800000000DB000008DB00000807
:10005000DB000008DD020008DB000008DB00000810
:1000600000000000DB000008DB000008DB000008E7
:1000700049020008891A0008DB000008000000009F
:10008000DD1B0008DB00000800000000DB000008AA
:10009000DB000008DB000008DB000008DB000008D4
:1000A000DB000008DB000008DB0000085522000828
:1000B000DB0000080348854600F0B4F8004800471C
:1000C000A9240008A00500200448804704480047F0
:1000D000FEE7FEE7FEE7FEE7FEE7FEE7871A000819
:1000E000B500000830B50B4601460020202201244F
:1000F00009E00D46D5409D4205D31D469540491B5C
:100100002546954040191546521E002DF1DC30BDA4
:1001100070B500242546002801DA01244042002958
:1001200001DA01254942FFF7DDFFAC4200D0404231
:10013000002C00D0494270BDF0B51FB40646002027
:1001400082B005464024019100901BE001992246AF
:100150000F46304600F020F8049A059B801A99411A
:1001600010D310461946224600F04BF8361A8F413C
:100170000197224601200021009F00F042F8381824
:100180004D4100902046641E0028DFDC019B009852
:100190002946324607B0F0BD10B5202A04DB0846D8
:1001A000203AD040002110BD0B46D340D04020243F
:1001B000A21A91400843194610BD03460B439B0702
:1001C00003D009E008C9121F08C0042AFAD203E0CC
:1001D0000B780370401C491C521EF9D27047D2B2F2
:1001E00001E00270401C491EFBD270470022F6E776
:1001F00010B513460A4604461946FFF7F0FF20469D
:1002000010BD10B5202A04DB0146203A91400020A1
:1002100010BD914020239C1A0346E34019439040AF
:1002200010BD0000064C0125064E05E0E36807CC32
:100230002B430C3C98471034B442F7D3FFF73EFFF2
:10024000142600083426000810B5024800F04FF9C3
:1002500010BD000060000020F8B5044600200090AA
:10026000206881688907890F012905D10168C907BC
:100270002CD1C168090429D48168154A102611407F
:100280000125002915D1816829438160124811494F
:100290000068FFF727FF00E0401E00900028FBD118
:1002A00000F0B8FB07460CE000F0B4FBC01B0228CE
:1002B00007D9A06B3043A063E06B2843E0630120C3
:1002C000F8BD20680068C043C007EDD10020F8BD2C
:1002D0001700008040420F005C000020F8B509279D
:1002E000FF060121384600F083FB0125314C002830
:1002F0001DD0314E30680028206839D0002816D033
:1003000000203060024620600421384600F07BFB6C
:1003100000220821384600F076FB002210213846E2
:1003200000F071FB00228021384600F06CFB0120B8
:1003300000F0AEFA022000F0ABFA2068002837D0B7
:1003400002213C46384600F053FB002830D01B48C1
:1003500005601B480068202814DC1A480122016847
:10036000491C01600821204600F04DFB002213E0EB
:10037000002805D1012204213846256000F043FB06
:100380003560D4E7104800220168491C016008214B
:10039000204600F038FB01221021204600F033FBFC
:1003A0000A480168491C016009480168491C01604C
:1003B000F8BD0000000000201000002024000020F4
:1003C0004C00002014000020180000200400002031
:1003D0001C000020F8B50025044620340095227D3D
:1003E000012A39D00122227503689E68760767D4F6
:1003F000384F4E68BE424DD09E6A0F78BA401643C1
:100400009E620123C26A1B079A421FD0012A1DD097
:10041000022A1BD0032A19D0042A17D0052A15D086
:10042000062A13D0072A11D002688B68566976070E
:10043000760FB3420AD05369DB08DB0053610068D2
:1004400042690B7A5B075B0F1A4342610A68102A04
:1004500004D0112A02D038E00220F8BD1E4883687B
:10046000102A07D0012292051343836008681028E0
:1004700003D02AE00122D205F6E71948174900689F
:10048000FFF730FE0A21484300E0401E009000289C
:10049000FBD11AE0986A0E78B240904398620968DE
:1004A000102901D0112910D10B488268102904D0DD
:1004B000012189058A43826007E00121C905F9E726
:1004C000816B20221143816301250020207528467D
:1004D000F8BD0000011000000027014040420F005D
:1004E0005C000020704770470068006C704770B572
:1004F000044600680168490702D54168490705D4E8
:100500000168090730D5416809072DD5A16BC906D7
:1005100004D4A16B012252021143A163C1680C25CE
:100520000905890F00291AD1A17E002917D1016878
:10053000090714D581684A070121002A08DB4268AF
:10054000AA434260A06B0A0290430843A06306E0FE
:10055000A06B20221043A063E06B0843E0632046B9
:10056000FFF7C0FF206805602068016809060DD507
:10057000406800060AD5A06B012109040843A06366
:10058000204600F0D9F821688020086020680168C2
:10059000C90613D54168C90610D5A16A10250129DD
:1005A00002D0C168C90707D0E16B02221143E163A1
:1005B00005602046FFF797FF2068056070BD0000CA
:1005C000F8B500260446002805D0A06B2546203546
:1005D000002802D007E00120F8BD0020E063287564
:1005E000204600F0ABF8A06B1022C006002870DB9C
:1005F0002068816849076CD4A16B130199430223D9
:100600001943A16381688907890F012905D1016810
:10061000C9070FD1C16809040CD4C16818239943D4
:10062000A3681943C160206801696368890089086B
:10063000194301612068C1683D4B1940C160207EAB
:10064000617E8003C9030843A17E4B031843A36A5C
:10065000012B02D001231B0300E000231843E368B1
:1006600018432369022B09D0002318432B79E57E18
:100670005B0018430123012D02D00AE00423F4E7B4
:10068000002927D0A16B20252943A163E16B1943E1
:10069000E163E1690D46FF3DC23D02D0256A294371
:1006A00008432168CD680543CD600125E16A2D0727
:1006B000A94213D0012911D002290FD003290DD04E
:1006C00004290BD0052909D0062907D0072905D010
:1006D00010E028E0012109040843DAE721684D69A8
:1006E000ED08ED004D6121684D69A78D7F077F0FF3
:1006F0003D434D612168C9680E4D2940814207D1B3
:100700000020E063A06B80088000401CA06308E02C
:10071000A06B022188431043A063E06B1843E063A1
:1007200001263046F8BDA06B1043A063F8E7000037
:100730001902FEFFE7FF3F837047000010B586B047
:10074000044614216846FFF751FD14492068884289
:1007500021D11348826941150A43826182690A40A6
:100760000592426909020A434261406908400590C6
:10077000202000900320019000200290092069466B
:10078000C00600F091F8002211460C2000F0A2F9FA
:100790000C2000F093F906B010BD000000240140C9
:1007A0000010024070B5044621680020896849079E
:1007B00032D425462035297D01292DD001212975E6
:1007C000617E012904D02046FFF746FD002818D19C
:1007D000A16B124A1140FF2201321143A163002193
:1007E000E163297522681C21116063690422082BCA
:1007F00008D023685D680D435D6021688B681343F2
:100800008B6070BD21684B6893434B6021684B68D7
:1008100018252B434B60F0E7022070BDFEF1FFFF6F
:1008200070B50024014620314A78022A03D0042101
:100830008163012416E0026813680E25AB43136040
:10084000026813685B085B0013600122056C1346A5
:10085000AB40C56B6B604A7000220A70416B002987
:1008600000D08847204670BD70B5044600F0D2F82D
:100870000546601C02D004480078241800F0CAF82D
:10088000401BA042FAD370BD50000020704700000A
:1008900010B504494A69024202D04861FFF7F6FFE9
:1008A00010BD000000040140F8B500238DE00124D4
:1008B0009C40A44622407DD04C68022C01D0122CD2
:1008C0000CD1DC08A40027183C6A5D07ED0E0F264A
:1008D000AE40B4430E69AE4026433E6205685E00FA
:1008E0000324B4400F79A543BF07BF0FB7402F4380
:1008F00007604D68012D05D0022D03D0112D01D0C8
:10090000122D0ED18568CF68A543B7402F4387606D
:1009100047686546AF430D79ED06ED0F9D403D43B9
:100920004560C568A5438C68B4402C43C4604C68DE
:10093000E40049D5284CA56901263543A561A46981
:100940009D0834400094254CAD002F19BC689D07CC
:100950002E0F0F25B540AC430925ED06A84201D165
:1009600000250FE01E4DA84201D101250AE01D4DD2
:10097000A84201D1022505E01B4DA84201D1032563
:1009800000E00525B5402543BD60184C25684E683C
:100990009543F60300D51543256065684E68954379
:1009A000B60300D515436560A5684E689543F60209
:1009B00002D500E008E01543A560E5684E68954360
:1009C000B60200D51543E5605B1C0A681446DC409E
:1009D00000D06CE7F8BD00000010024000000140AC
:1009E0000004004800080048000C004800040140D2
:1009F0000069084000D00120704742690A4200D0D7
:100A0000090481617047002A01D0816170478162C9
:100A100070470000014880687047000050000020C7
:100A20000248816802788918816070475000002070
:100A300010B506480168102211430160002000F043
:100A400007F800F027F8002010BD00000020024049
:100A500070B504460D4D7D202978C000FFF742FB9C
:100A600001460B480068FFF73DFB00F043FB002800
:100A700009D1042C07D200222146401E00F02AF89A
:100A800000206C6070BD012070BD0000500000208F
:100A90005C00002008B5084881690122114381618A
:100AA000816911400091C26901040A43C261C069B1
:100AB0000840009008BD000000100240002805DB3F
:100AC000C106C90E01208840014908607047000036
:100AD00000E100E010B501F0FFFB10BDF8B50546E0
:100AE0000068354CC00352D5E0690026C00007D429
:100AF000E16920040143E161E169014001260091BF
:100B00002E480168C90510D401688215114301609F
:100B1000FFF780FF074604E0FFF77CFFC01B642857
:100B200024D826480068C005F6D5206A03273F026E
:100B3000384020D06968394081421CD0206A226A3E
:100B4000B843012109040A432262226A8A432262CD
:100B50002062C0070FD0FFF75DFF009008E0FFF7AD
:100B600059FF0099411A1648814201D90320F8BD66
:100B7000206A8007F3D5206A6968B8430843206279
:100B8000002E04D0E169012000078143E16128784B
:100B9000C00705D0206BA968800880000843206347
:100BA0002878800605D5206B10218843E968084322
:100BB00020630020F8BD00000010024000700040DB
:100BC00088130000F8B50F46060059D03A4D286842
:100BD000C007C00FB84209D2286840084000384317
:100BE00028602868C007C00FB84249D13068334C2C
:100BF00081070CD5400704D5606807210902084326
:100C000060606068F0218843B168084360603078B4
:100C1000C00726D0706801280ED0216802280ED0A7
:100C2000890700292CDA616889088900014361601D
:100C3000FFF7F0FE00900DE021688903F1E78901DC
:100C4000EFE7FFF7E7FE0099411A1D48814201D9FD
:100C50000320F8BD60680C21084071688900884253
:100C6000EFD12868C007C00FB8420BD928684008E8
:100C70004000384328602868C007C00FB84201D040
:100C80000120F8BD3078400706D5606807210902C9
:100C90008843F1680843606000F028F86168094AF9
:100CA0000906090F515CC840074908600020FFF79A
:100CB000CFFE0020F8BD00000020024000100240DE
:100CC00088130000FC2500085C000020044805494A
:100CD00000684968044A4905490F515CC84070479B
:100CE0005C000020001002400C26000810B514A380
:100CF0000FCB88B06C460FC415A30FCB0FC4184A96
:100D000051680C200B4603401648042B16D0082BC4
:100D100014D18B021B0F6C46E45CD26A04AB120741
:100D2000120F9A5CC90305D500231946FFF704FA90
:100D3000214601E020460C4901F0A8FA08B010BD98
:100D400002030405060708090A0B0C0D0E0F10100C
:100D50000102030405060708090A0B0C0D0E0F100B
:100D60000010024000127A0000093D00FEB50400A8
:100D700070D02078DC4DC0074AD068680007800F2B
:100D8000012807D068680007800F022809D1686829
:100D9000C00306D5286880033AD560680028E7D0EC
:100DA00036E06168012914D001208004002901D0B7
:100DB000052914D02A68012109048A432A60296878
:100DC000814329606068002816D0FFF723FE06469D
:100DD0000EE028680121090408432860F2E7296829
:100DE00001432960F5E7FFF715FE801B64286ED8E4
:100DF00028688003F7D50BE0FFF70CFE064604E0F9
:100E0000FFF708FE801B6428F1D828688003F7D418
:100E100020780126800700283CDA68680007800FE8
:100E200007D068680007800F022809D16868C003EE
:100E300006D42868800716D5E06801280AD112E098
:100E4000E0680028286816D030432860FFF7E2FDEC
:100E5000074605E043E1FFF7DDFDC01B0228C6D8C9
:100E600028688007F7D52868F82188432169C900D8
:100E7000084328600EE0400840002860FFF7CAFDE4
:100E8000074604E0FFF7C6FDC01B0228AFD828685C
:100E90008007F7D42078000722D5E0690028686A27
:100EA0000ED030436862FFF7B5FD074604E0FFF758
:100EB000B1FDC01B02289AD8686A8007F7D50FE0F9
:100EC000400840006862FFF7A5FD074605E09DE089
:100ED000FFF7A0FDC01B022889D8686A8007F7D4F5
:100EE000207804274007002860DA00200190E86994
:100EF000C00008D4E969B8060143E961E969014025
:100F000001200091019079480168C90511D4016858
:100F1000821511430160FFF77DFD009005E0FFF7AA
:100F200079FD0099401A642870D870480068C0059F
:100F3000F5D5A06801280AD0002801D0052810D0D6
:100F4000286A400840002862286AB84301E0286AFD
:100F500030432862A068002812D0FFF75BFD0090A4
:100F60000AE0286A38432862F1E7FFF753FD009949
:100F7000411A5F48814249D8286A8007F5D50DE0BB
:100F8000FFF748FD009006E0FFF744FD0099411A85
:100F9000574881423AD8286A8007F5D4019800283A
:100FA00004D0E969012000078143E9612078C00687
:100FB00035D5606901280CD0401D686B23D03843BB
:100FC0006863686B400840006863FFF723FD0646CE
:100FD00022E0686B38436863686B30436863FFF7EF
:100FE00019FD064604E0FFF715FD801B02285BD8BB
:100FF000686B8007F7D5686BF8218843A169C90041
:10100000084368630BE0B8436863F4E74CE0FFF71C
:1010100001FD801B022847D8686B8007F7D4206A3F
:1010200000285ED069680907890F022942D001268D
:1010300036060228286805D0B0432860FFF7EAFC8E
:10104000044633E0B0432860FFF7E4FC074604E0C1
:10105000FFF7E0FCC01B022826D828688001F7D4DF
:10106000E86AE16A000900010843E862616AA06A6F
:10107000084369683D221204914308436860286868
:1010800030432860FFF7C6FC044604E0FFF7C2FCCB
:10109000001B022808D828688001F7D521E0FFF757
:1010A000B9FC001B022801D90320FEBD286880017D
:1010B000F5D416E00128F8D06868E96A0122120424
:1010C000636A02409A420AD10907E26A090F914213
:1010D00005D10F2189040840A16A884201D001206E
:1010E000FEBD0020FEBD0000001002400070004068
:1010F00088130000094910B5401E884201D901201B
:1011000010BD074C60610321081F01F0E5F80020C5
:10111000A06107202061002010BD0000FFFFFF003C
:1011200000E000E07047704730B5034620331A7F77
:10113000012A26D001221A770325CA682D02AA4364
:101140008D6800242A430125AD02AA434D6800683A
:101150002A430125ED02AA430D682A4301252D03E8
:10116000AA430D692A4301256D03AA434D69C96944
:101170002A430125AD03AA430A4342641C77002099
:1011800030BD022030BD0000F0B502462032137F92
:10119000012B1ED00125157702235377066874684A
:1011A000B3687027BC430F682743776000680A4C18
:1011B000A04205D0094CA04202D0094CA04204D163
:1011C00080244968A3431943816055770020107734
:1011D000F0BD0220F0BD0000002C014000040040E2
:1011E000004001400268D36801210B43D3600068CE
:1011F00082685207520F062A02D002680A43026030
:1012000000207047704770B50446006801690025EA
:10121000C9438907002915DBC168C943890711D46F
:10122000E91E01610120207720688069800720463F
:1012300002D0FFF7E7FF04E000F0D0F8204600F00E
:101240007FF9257720680169C943490717D4C16828
:10125000C943490713D40421C943016102202077FF
:10126000206880698005800F204602D0FFF7CAFF02
:1012700004E000F0B3F8204600F062F9257720681A
:101280000169C943090716D4C168C943090712D4C3
:101290000821C9430161042020772068C0698007C4
:1012A000204602D0FFF7AEFF04E000F097F820469A
:1012B00000F046F9257720680169C943C90617D4AB
:1012C000C168C943C90613D41021C943016108206C
:1012D00020772068C0698005800F204602D0FFF784
:1012E00091FF04E000F07AF8204600F029F9257714
:1012F00020680169C943C90708D1C168C943C90742
:1013000004D1891E0161204600F01BF920680169A3
:10131000C943090609D4C168C943090605D4802117
:10132000C94301612046FFF7FDFE20680169C943FA
:10133000490609D4C168C943490605D44021C943B7
:101340000161204600F0FEF820680169C943890662
:1013500009D4C168C943890605D42021C943016164
:101360002046FFF7E0FE70BD70B586B0044614213C
:101370006846FEF73BFF2568154E01240920002131
:10138000144A64040223C006B5420CD155692543B2
:1013900055615269029122400592DA01019304934A
:1013A000009203910FE00C4EB5420FD155692543D1
:1013B0005561526902912240059240220391012118
:1013C0000193009204916946FFF76EFA06B070BD72
:1013D000002C014000100240000400407047F8B5A6
:1013E000064604462036307F0D4601280DD00120E8
:1013F0003077022070770427002A08D0042A16D0FC
:10140000082A2AD00C2A4DD137E00220F8BD2068E6
:1014100000F044FC20688169082211438161206842
:101420008169B9438161206881692A6912E0206875
:1014300000F078FC206882690121C9020A438261B8
:10144000206881690122920291438161206881694B
:101450002A6912021143816124E0206800F0A2FC95
:101460002068C26908210A43C2612068C169B94382
:10147000C1612068C1692A6912E0206800F0D4FCCB
:101480002068C1690122D2021143C1612068C2698A
:10149000012189028A43C2612068C1692A69120256
:1014A0001143C1610120707700203077F8BD70B51D
:1014B000040005D025462035687F002802D006E0CC
:1014C000012070BD00202877204600F00BF8022094
:1014D0006877211D206800F09DFB012068770020BF
:1014E00070BD000008B5134A0168134891420DD140
:1014F0008269C1140A438261806900220840009019
:1015000011460D20FFF7E6FA0D200FE00B4A91423D
:101510000ED1C26902210A43C261C069002208409B
:10152000009011461020FFF7D5FA1020FFF7C6FAF9
:1015300008BD0000002C01400010024000040040E3
:101540007047704770477047F8B502680446D06925
:10155000116893684C4D06462E402025002E68D019
:10156000DE07F60FFF2721370F40374375D0C70737
:1015700006D0CF0504D501271762E26F3A43E26730
:10158000820708D5DA0706D0276802223A62E26F9E
:1015900004273A43E267420708D5DA0706D02368F2
:1015A00004221A62E26F02231A43E267020709D596
:1015B0000A462A40324305D0236808221A62E36FA4
:1015C0001343E367020508D54A0106D501222368C3
:1015D000D2021A62E26F2A43E267E26F002A30D039
:1015E000800606D5880604D5216E002901D0204644
:1015F0008847E06F21688968490602D4282108429B
:1016000024D0204600F0E6FC20688168490619D500
:101610008168402291438160E06E002812D01B490E
:101620004163E06EFFF7FCF800280AD0E06E416BE2
:1016300006E0830611D58B060FD5216E12E02046F9
:101640008847F8BD2046FFF77EFFF8BD2046FFF72C
:101650007AFF0020E067F8BDFFE7030605D50B061B
:1016600003D5616E0029EAD1F5E74006F3D54806B7
:10167000F1D5116820464023994311606567002128
:10168000616600F0B1F8E6E70F080000C11F00082E
:1016900010B5040003D0606F002802D007E00120DD
:1016A00010BD002170200155204600F027F82420AD
:1016B000606720680168490849000160204600F021
:1016C00099FC0128ECD0606A002802D0204600F086
:1016D000E1FB206841680122D20291434160206809
:1016E00081680822914381602068016801221143CA
:1016F0000160204600F034FC10BD000010B586B03B
:10170000044614216846FEF771FD17492068884297
:1017100027D116488269012189030A4382618269BF
:101720000A4005924269C9000A4342614069084083
:1017300005900320400200900220019000200290BA
:10174000032003900120049009206946C006FFF79A
:10175000ABF8002211461B20FFF7BCF91B20FFF756
:10176000ADF906B010BD0000003801400010024085
:1017700070B5436F202B30D100290AD0002A08D041
:101780008568DC01A54206D10369002B03D1CB0794
:1017900001D0012070BD034660331E7C012E1CD099
:1017A00001261E74C164014640310A824A8200212A
:1017B0004166C16721224267A54202D10269002A1F
:1017C00009D0074A426619740068016880221143F3
:1017D0000160002070BD034AF4E7022070BD0000E4
:1017E0007D2100083D2100087047FEE70EB500216D
:1017F000144800910191124A02910260416018223E
:101800008260012204230C300EC00170417081708F
:10181000FF23C170C23343600346816008331971EE
:1018200002611838FEF7CCFE05200090012000036D
:1018300001900004029069460248FEF7CBFD0EBD00
:101840000024014060000020F0B587B014216846F4
:10185000FEF7CCFC21484269012149040A43426158
:1018600042690A400592426949000A43426140695F
:1018700009270840FF06059000229C213846FFF703
:10188000C2F8174E002231461648FFF7BCF8032075
:101890000090154800240190694602943846FFF7ED
:1018A00003F89C2001250090029469460195039459
:1018B0003846FEF7F9FF029469460A4800960195FA
:1018C0000394FEF7F1FF002211460520FFF702F90D
:1018D0000520FFF7F3F807B0F0BD0000001002404C
:1018E000FF010000000400480000111010B592B084
:1018F00000240F941C2108A81094FEF777FC2021E7
:101900006846FEF773FC1B48194901601A49846058
:1019100041600461446119498461C160FFF7C7FDFA
:101920000F940FA913481094FFF72EFC6020089025
:10193000FF20F5300E9409900A940B940C940D94AA
:10194000002208A90B48FFF74AFD0120009440033C
:101950000294059001940394049469460794054801
:10196000FFF7E2FB0348FFF7FFFC12B010BD0000D9
:10197000002C0140A0000020BF5D00008713000084
:1019800010B58AB0002407941C2168460894FEF71D
:101990002DFC1248104901601149846041600461C6
:1019A00010498461C160FFF782FD079407A90B48C5
:1019B0000894FFF7E9FB60200090FF20F5300190CC
:1019C00002940022694604940448FFF708FD034886
:1019D000FFF7CAFC0AB010BD00040040E000002080
:1019E000DF2E0000E703000010B50A480849016037
:1019F0004B21C901416000218160C16001618161A9
:101A0000C1610C22016242614162FFF741FE10BDDB
:101A1000003801402001002070477047704710B522
:101A2000FEF7FEFF10BD70B594B030216846FEF79A
:101A3000DDFB002401250F94122005950090102055
:101A40000E9410941394049006900D941294000434
:101A50000C94039502260A901194089609940B940D
:101A60006846FFF783F907200C900E9400210D962D
:101A70000F940CA8FFF7A6F810A810951294FFF782
:101A80002DF814B070BD7047F0B53F488FB00068B6
:101A9000002873D03D4C2068401C2060022806D0EE
:101AA0003B480068002810D010223A4963E03A48C9
:101AB00000250168002902D0056025605EE00F2244
:101AC00036493748FFF754FEF7E7364836A1026833
:101AD00009A800F0C7FB354833A102680AA800F046
:101AE000C1FB334830A102680BA800F0BBFB2422E5
:101AF00030A16846FEF761FB684600F0CCFC044666
:101B000009A800F0C8FC0D900AA800F0C4FC0C90D5
:101B10000BA800F0C0FC0023074618461D461946D6
:101B20006A4624E0565C782E04D0792E0CD07A2EAA
:101B300014D01BE00D9EB34202DA09AEF65C00E061
:101B4000202656545B1C11E00C9EB04202DA0AAE0D
:101B5000365C00E020265654401C07E0BD4202DA05
:101B60000BAE765D00E0202656546D1C491CA14248
:101B7000D8DBA2B269460A48FFF7FAFD1648FFF71C
:101B800042FB0FB0F0BD000000000020200000204C
:101B90000C00002028000020240000203900002034
:101BA00020010020140000202564000018000020FF
:101BB0001C0000203C477270313A7878782C4772CC
:101BC00070323A7979792C546F706C616D3A7A7A07
:101BD0007A3E0D0A00000000A000002010B5094C5C
:101BE0002068002804D00848FEF77EFC07490860FA
:101BF0000748FFF708FB2068002802D00248FEF7DC
:101C0000D1FD10BD00000020600000204C0000202D
:101C1000E0000020F0B502681A4B1B4C984201D03E
:101C2000A04203D17025AA434D682A43174D184E90
:101C3000184F98420AD0A04208D0174CA04205D0B5
:101C4000A84203D0B04201D0B84205D114460322C5
:101C500012029443CA6822438024A2434C6922435F
:101C600002608A68C2620A688262984205D0A8420D
:101C700003D0B04201D0B84201D10969016301210A
:101C80004161F0BD002C01400004004000400140D3
:101C9000004401400048014000200040F0B5026AC5
:101CA000520852000262056A436882697024A243A6
:101CB00092080C6892001443022295438A68164EDB
:101CC0002A43144DA84207D0B04205D0134FB84262
:101CD00002D0134FB84206D10827BA43CF68174342
:101CE000042297433A46A84207D0B04205D00B4D94
:101CF000A84202D00A4DA84206D103252D02AB43CB
:101D00004D691D438B692B4343608461496841637E
:101D10000262F0BD002C014000400140004401403F
:101D20000048014070B5026A10239A430262056AB6
:101D30004268836973242402A3430C6824021C4371
:101D400020239D438B681B012B43124DA84208D1D1
:101D50001D46CB688026B5431B012B434025AB4372
:101D600008E00D4DA84205D00C4DA84202D00C4D04
:101D7000A84208D10325AD02AA434D69AD00154321
:101D80008A6992002A4342608461496881630362E0
:101D900070BD0000002C01400040014000440140A3
:101DA0000048014070B5026AFF2301339A43026282
:101DB000056A4368C2697024A24392080C689200C5
:101DC00014430122520295438A6812022A43124D9B
:101DD000A84208D11546CA68C614B54312022A4360
:101DE0000515AA4308E00D4DA84205D00C4DA842A8
:101DF00002D00C4DA84208D103252D03AB434D69F9
:101E00002D011D438B691B012B434360C46149684D
:101E1000C163026270BD0000002C0140004001401F
:101E2000004401400048014030B5026A01231B0311
:101E30009A430262046A4268C36973252D02AB4368
:101E40000D682D021D4301235B039C438B681B031C
:101E500023430C4CA04208D00B4CA04205D00B4CA5
:101E6000A04202D00A4CA04205D10124A403A243FF
:101E70004C69A40122434260C56149680164036260
:101E800030BD0000002C01400040014000440140F2
:101E90000048014010B5818CC90707D001684A6825
:101EA00001235B049A43836A1A434A60818C890741
:101EB00007D501684A6801231B049A43C36A1A4381
:101EC0004A60818C490707D501684A6801239B0451
:101ED0009A43036B1A434A60818C090707D501684E
:101EE0004A680123DB039A43436B1A434A60818C9F
:101EF000C90607D50268916801231B039943836BC8
:101F000019439160818C890607D501688A6801238D
:101F10005B039A43C36B1A438A60818C490612D5CE
:101F200003685A6801210905046C8A4322435A60F8
:101F3000026C8A4207D10268516803235B0599430A
:101F4000436C19435160818C090607D501684A68C2
:101F50000123DB04806C9A4302434A6010BD0000F9
:101F6000F8B500260446C667FEF754FD054620680E
:101F70000068124F000709D501212B4600224905B0
:101F80002046009700F018F900280DD1206800685D
:101F900040070BD501212B460022890520460097DA
:101FA00000F00AF9002801D00320F8BD2020606766
:101FB000A067603426740020F8BD0000FFFFFF0119
:101FC00010B5406A0022014640314A834A82FFF739
:101FD000BAFA10BD01680A68FF2321339A430A60E8
:101FE00001688A68520852008A60202181670021B6
:101FF0000166704770B5044680682169E26908434C
:10200000616900251143226808431168444B194057
:102010000143116021684868032212039043E2687B
:1020200010434860A169206A2268084391680B2325
:102030001B029943014391603A492068884210D1BC
:102040003948006B8007800F11D0012805D0022885
:1020500005D003280AD1022009E0042007E0082067
:1020600005E03249884201D1002000E01020012221
:10207000E169D2032E4E914228D1002806D00228D1
:1020800007D0042817D0082844D11AE0FEF71EFE16
:1020900013E06168274A48088018FEF723F880B2E9
:1020A00001461039B14235D82149491C0140000789
:1020B000400F084321E0FEF719FE616840004A081E
:1020C000EAE76168012248081204E5E7002806D023
:1020D000022807D0042813D008281BD116E0FEF7E9
:1020E000F5FD0FE06168144A480811E0FDF7FAFFBA
:1020F00080B201461039B1420CD82168C8600AE0AC
:10210000FEF7F4FD61684A081018EFE761684808B7
:102110008018EBE70125002020666066284670BD28
:10212000F369FFFF00380140001002400044004006
:10213000EFFF00000024F40000127A00416F212913
:1021400010D1014640314A8A002A0CD0C26C036883
:102150001288D205D20D1A85C26C921CC264488ABC
:10216000401E4882704701680A6880239A430A60CB
:10217000006801684022114301607047416F2129C6
:102180000ED1014640314A8A002A0AD0C26C036847
:1021900012781A85C26C521CC264488A401E48825A
:1021A000704701680A6880239A430A6000680168E2
:1021B0004022114301607047FFB581B005460F46CC
:1021C000044660350A9E38E0701C36D0FEF722FCCB
:1021D0000499401AB04221D8002E1FD0206801680F
:1021E00049072AD5C069C043000526D401202168CB
:1021F000C002086220680168FF22A1329143016099
:102200002068816849084900816020206067A067D4
:10221000E06700202874032005B0F0BD2068016845
:10222000FF22A1329143016020688168490849007A
:10223000816020206067A067EBE72068C1693846AD
:10224000884305D0002103988142BDD00020E3E7F8
:102250000121F8E710B50248FFF776F910BD00003C
:10226000200100200FB410B504A9074B02AA03985F
:1022700000F064F8044602A9002000F007F92046A7
:1022800010BC08BC04B018478D240008F8B5040C35
:102290008BB2264682B25E430D0C1046370C584373
:1022A000360480190021794116466E43370C3604F6
:1022B0008019794126466E438919F8BD30B47446B9
:1022C000641E2578641CAB4200D21D46635D5B0032
:1022D000E31830BC184700008307FF22DB0E9A404A
:1022E0008907090E9940002808DB830809489B00EC
:1022F0001B18186890430843186070470007000FC8
:102300000838830804489B001B18D8699043084389
:10231000D861704700E400E000ED00E002E008C88A
:10232000121F08C1002AFAD170477047002001E04F
:1023300001C1121F002AFBD170470000FFB58DB00C
:102340000446002506E025280AD0109A0F999047E8
:10235000641C6D1C20780028F5D1284611B0F0BD12
:1023600000270121484A009700E00743641C2378B6
:102370000846203B98401042F7D120782E2817D1EC
:10238000042007436078641C2A280CD10E98641C32
:1023900002C800910E900BE000990A225143303997
:1023A0004018641C00902078014630390929F3D97F
:1023B00020780028D1D0642808D0692806D0752854
:1023C0001ED0109A0F9990476D1C5BE00A200E9961
:1023D000019001C90E91002802DA40422D2102E04D
:1023E000390504D52B216A461172012103E0F90752
:1023F00004D02021F7E70BAE0B910DE00021FAE7A6
:102400000A200E99019001C90E91F7E70199FDF795
:1024100069FE3031761E31700028F7D103A8801B89
:1024200020300190780701D5009801E0012000904C
:102430000199884201DD401A00E000200027009049
:1024400006E002A8109AC05D0F9990476D1C7F1C92
:102450000B988742F5DB04E0109A30200F999047E3
:102460006D1C0099481E00900029F5DC05E03078CD
:10247000109A761C0F9990476D1C0199481E019087
:102480000029F4DC641C65E7092801000A68531C74
:102490000B60107070470146002000E0401C0A5C91
:1024A000002AFBD170470000FEF7C2FAFFF7BBFA23
:1024B000FFF7CAF9FFF79AF9FFF762FAFFF716FA82
:1024C000FFF792FA1848FEF78DFE17484038FEF7DE
:1024D00089FE15488038FEF765F9134840300068DA
:1024E0000168202211430160012509260F4CF606E0
:1024F00020680028FCD06068632807DDA1680029F7
:1025000008D080213046E560FEF777FA606800F079
:102510000FF8EDE76438A560606001228021304645
:10252000FEF771FAF2E70000E00000200000002052
:1025300070B5FF251F4C0135092811DC00F03CF86F
:10254000002280212046FEF75EFA0122294620461D
:10255000FEF759FA0A20FEF787F90022294625E0FE
:102560000A21FDF7D5FD0646084600F025F80022B1
:1025700080212046FEF747FA012229462046FEF731
:1025800042FA0A20FEF770F9304600F015F80122F1
:1025900080212046FEF737FA002229462046FEF722
:1025A00032FA0A20FEF760F9002280212046FEF769
:1025B0002AFA70BD0004004800B50F490300FFF778
:1025C0007DFE0A06080A0C0E10121416181A3F2077
:1025D00010E006200EE05B200CE04F200AE06620B1
:1025E00008E06D2006E07D2004E0072002E07F2067
:1025F00000E06F20486100BD0004004800000000BA
:1026000000000000010203040607080900000000A2
:1026100001020304342600080000002060000000CE
:102620001C230008942600086000002040050000DC
:102630002C230008000000005000000000000000F3
:10264000000000000000000028000000280000003A
:102650005000000000000000000000003C4C696DCC
:102660006974206173696D69213E0D0A003C5572E1
:10267000756E20796F6B2E2E2E3E0D0A0000000025
:102680000000000001000000040000000000000045
:0426900000127A00BA
:04000005080000B53A
:00000001FF
